:10000000FC7F002015060000050600000906000020
:1000100000000000000000000000000000000000E0
:100020000000000000000000000000000D060000BD
:100030000000000000000000110600006107000041
:1000400010B5064C2378002B07D1054B002B02D0AE
:10005000044800E000BF0123237010BD5C000020B5
:1000600000000000F018000008B5084B002B03D07A
:100070000748084900E000BF07480368002B03D089
:10008000064B002B00D0984708BDC046000000007A
:10009000F018000060000020580000200000000060
:1000A000154A164B1178002909D115491878097895
:1000B0004118C9B21970802012490005C861117831
:1000C0000131C9B211701978F02902D819780929BB
:1000D00009D80B4908784042C0B2087018780978EE
:1000E0004118C9B2197012781B789A4203D1802244
:1000F000044B1205DA6170477800002001000020EF
:10010000000000200044004110B5C3699C07FCD4E6
:1001100003680224A3430360C46901231C42FBD18A
:100120000468234303600368DC07FCD4C46901232B
:100130001C42FBD1C469DC401C42F7D1084B1A4376
:100140000260C3695A07FCD4C0239B0243608181CB
:10015000C3699C07FCD4036802221343036010BDEB
:1001600004000040037EDA07FCD5018570470000DB
:10017000027E01235107FBD5428B1A4207D1428BE5
:10018000DA401A4203D1428B92081A4202D0034B42
:1001900001221A70008DC0B27047C046790000205D
:1001A00070B50368041C988B1A1C0821FF320842A2
:1001B00026D0802099839872112353704021144BCC
:1001C000917150715E68134DC0202E40800506432A
:1001D0005E605E693540284358610F4818600F48DB
:1001E00018615D680E4828408025AD02284358609C
:1001F0005868800B8003586000235171237105E01B
:10020000137ADA0602D5201C00F0E4FA207970BDDA
:1002100094010020FFFFFF8F9400002014010020B4
:10022000FF3F00F0002303714371044B01608360C2
:100230000B78022213430B707047C046A1010000E7
:1002400038B5364B2021DA6901200A43DA61344B94
:1002500006241A7802431A70324B0F221978914300
:1002600019701978214319702F490C7820430870B0
:1002700019780A401A701A7860210A431A702B4BB9
:100280002B4A5A805A7852B2002AFBDB294B0121B3
:100290001A780A431A709A78D107FCD42648026863
:1002A000510B1F221140914200D1052111408C01B8
:1002B0001D8D22492940214319850468A10C0A405B
:1002C0001F2A00D11D221C8D1F210A408C4322436E
:1002D0001A8502680721D20D0A408A4200D1032202
:1002E0000A40188D1103164A02400A431A851978EC
:1002F0007F220A401A701A78042112480A431A70A1
:1003000058621A890C218A431A811A8901218A4369
:100310001A810021802201F06CF938BD00040040F0
:10032000584400413C44004159440041000C004005
:100330000640000000500041246080003FF8FFFFAD
:10034000FF8FFFFF94010020F7B5141C1F4A5F01C7
:1003500001971D1CD319061C5869271C4000400F2B
:1003600003301033C74006D00F1C80225968120694
:100370000A435A6009E02F1C7B1E9F41144BBF01AA
:10038000FF18381C221C01F02BF901990F48083581
:1003900042181761131C5269A104920B890C920335
:1003A0000A435A6159690B4A0A405A616B01F318B2
:1003B0000222DA715979802252420A435A716B0142
:1003C000F318DB799A07FAD5201CFEBD94010020B2
:1003D00014010020FF3F00F0F8B51A4E051C3378D9
:1003E000141C002B12D1184B184A1A645A6C920B29
:1003F00092035A64586C164A02405A64A2235B0066
:10040000EA5C40200243EA54012333704827FF3757
:10041000EA5D0123134012D00B4B5A6C9204920CEC
:10042000A24202D25C6CA404A40C081C221C074942
:1004300001F0D6F80123EB550023337000E01C1CBB
:10044000201CF8BD7A00002094010020D400002078
:10045000FF3F00F0FF3083792022002900D11022D5
:100460001343837170470000084BFF305A69920BA9
:1004700092035A6102230372827980235B42134301
:100480008371037A9A07FCD57047C0469401002017
:1004900080235B421943C9B28172704770B5A023B3
:1004A00003225B00C254134B134A5C6CC0211440FE
:1004B00089050C4346255C64FF35402444550F4DA7
:1004C00030261D6490256D0046555D6B154029430F
:1004D000922559636D0080214155094D1D63B0255A
:1004E0006D0044555C6F22405A67B2235B00C154D3
:1004F00070BDC04694010020FFFFFF8FD400002094
:100500005401002030B5364A1E2351680820994313
:1005100002231943516033498A6902438A61324890
:10052000324A9082908A03439382D3689807FCD51D
:100530002F4B012018701878C40704D52C48407838
:1005400040B20028F7DB01209860587840B20028BC
:10055000FBDB284C26484460587840B20028FBDB7F
:1005600082242348E4014480587840B20028FBDB11
:10057000908C8024A0439084D068C506FCD51E4C86
:100580001A48C462D4681948E506FBD5848C1B4D13
:100590002C438484D4681548E506FBD5848C022559
:1005A0002C438484D0680406FCD51048C0684506F6
:1005B000F8D5D068C406FCD500229A605A7852B2A9
:1005C000002AFBDB0E480A4A50605A7852B2002AD1
:1005D000FBDB00230B724B728B72CB7230BDC046BB
:1005E00000400041000400400C06000000080040EC
:1005F000000C004001050100B805FF7D040A000061
:10060000000703000EBEFEE70DBEFEE705BEFEE7D7
:1006100002BEFEE70E4A0F4838B5824204D10E4AA8
:100620000E4B93420ED10AE00D4C9442F7D00023BA
:10063000D1188842F3D9E55804330D60F8E700F08B
:1006400011F804E09342FAD2002102C3FAE7FEE770
:10065000000000205C000020A00300205C000020BF
:10066000F4180000324A38B51368141C01331ED048
:10067000D1B200291BD12F4B1878012318402E4BE3
:100680000AD11D682D498D4201D118600FE0196013
:100690002B4901390029FCD11960236883F30888AC
:1006A000FF239A43274B9A60214B5B681847FFF75B
:1006B00029FF62B600F0C2FD00F058F8224B8022FC
:1006C00012059A602149224B02220A601A60012217
:1006D0000A601A601F4B204A041C5A60194AC02144
:1006E000106A09060002000A0143116200229A60A2
:1006F00007221A60A368201C9847184B002801D0D5
:1007000001221A701A78002A05D0002000F090FA11
:1007100000F014FBFCE71B78002BEBD100F002FE8D
:100720000028E7D0012000F083FA00F007FBFCE787
:100730000020000038040040FC7F00203581730752
:1007400048E8010000ED00E0004400418844004119
:100750009844004110E000E0E70300007B00002027
:1007600008B5FFF79DFC00F0C7FA08BD10B5054BB2
:10077000054C2360FFF764FD201C2168FFF752FD44
:10078000201C10BD005000411402002070B5051C53
:10079000C0B0081C161C0C1C00F033FF40006A4659
:1007A000032302305370107076080123E218013AD7
:1007B00011785A00002906D1281C69460023FFF74A
:1007C000C3FD40B070BDB342F6DA684681520133D2
:1007D000ECE70000F7B5BA4A04681378B949271C5A
:1007E000FF37051C102038720B705378B648B74E8F
:1007F000037093783380D178338809020B433380B8
:100800001179B34B1980517918880902084318806F
:100810009079B0490880D2790888120202430A8090
:1008200040227A71A84F3A78A64F120238780F1CEE
:100830000243A9488446181C624500D1C2E020DC6E
:10084000802149008A4200D16EE109DC812A00D171
:1008500092E0822A00D195E0802A00D064E18BE00A
:1008600081235B009A4200D1CFE000DA58E1C02337
:100870009B009A4200D157E1984B9A4200D14FE138
:1008800052E190231B019A4269D015DCD023DB0092
:100890009A4222D088231B019A4269D0A023DB0010
:1008A0009A4200D040E1201CFFF7DEFD3188286825
:1008B00089B2FFF7EDFD3BE1894B9A4200D12FE170
:1008C00000DC31E1874B9A4200D11DE1864B9A4210
:1008D00000D029E133886B7122E133881B0A012B98
:1008E00008D10B8812222868934201D80A8892B254
:1008F0007E4911E133881B0A022B08D10B88432261
:100900002868934201D80A8892B2794904E1338871
:100910001B0A032B00D007E13388DBB2012B17D071
:10092000002B07D0022B00D0FEE00A882868D2B244
:10093000704911E0042201A86F4900F051FE3B8884
:1009400004222868934201D83A8892B201A9E3E0D0
:100950000A8828686949D2B2FFF718FFE8E03388AF
:10096000201C2B71FFF780FD201CFFF797FDDFE0B7
:10097000291C01C90122CFE0614900230B802868AE
:100980000222CAE05E4900220A80188850221040E4
:100990005C4A10701E880F20304018801888032889
:1009A00000D9C1E012781B8808335B01E418A379F1
:1009B000002A01D09B0600E0DB06DB0F0B802868D5
:1009C0000222A9E019887F2291434E4AC9B21170D0
:1009D00018880F21014019803188002900D0A3E038
:1009E0001988002900D19FE01988032900D99BE0CC
:1009F00012781B8808335B01E318002A02D02022FA
:100A00005A718DE0102159718AE002887F239A4340
:100A10003C4BD2B21A7001880F220A400280328801
:100A2000002A00D080E00288002A00D17CE0028801
:100A3000032A00D978E01B78002B1FD003880833E5
:100A40005B01E3189B799A066AD503882022083354
:100A50005B01E3181A71038808335B01E318DB7943
:100A60005F065DD50388402208335B01E318DA7125
:100A70000388022208335B01E3181EE00388083371
:100A80005B01E3189B79D9064AD503881022083305
:100A90005B01E3181A71038808335B01E318DB7903
:100AA0009A063DD50388202208335B01E318DA71EA
:100AB0000388012208335B01E3181A7130E0C04655
:100AC000940000207E0000207F0000208000002095
:100AD000860000207C0000200203000001030000CB
:100AE00021200000A1210000212200004416000066
:100AF0000400002038160000281600002C16000004
:100B000082000020840000200B880822286893427D
:100B100001D80A8892B207490023FFF715FC07E0C5
:100B2000201CFFF7A1FC03E0201C0121FFF792FC31
:100B3000F7BDC0464800002007B5054B01220190D3
:100B400001A91868131CFFF7FFFB01200EBDC0466A
:100B50001402002013B5054B6C4607341868211C9D
:100B60000122FFF739FC207816BDC0461402002090
:100B700010B5074C201CFFF713FB031C0020834219
:100B800005D022684823FF33D05C0123184010BDF4
:100B90001402002010B5054A0C1C031C191C106817
:100BA0000123221CFFF7D0FB201C10BD14020020E3
:100BB00070B5084C061C201C0D1CFFF7F1FA002331
:100BC000984205D02068311C2A1CFFF705FC031C45
:100BD000181C70BD14020020F8B50C4C051C201C1C
:100BE0000E1CFFF7DDFA0023271C341C98420AD0A4
:100BF000002C07D0291C221C3868FFF7EDFB241AB3
:100C00002D18F5E7331C181CF8BDC046140200204F
:100C100008B5031C081C111C9847034B01221A60DD
:100C2000024B64221A8008BD9444004190000020C9
:100C3000012805D1054B064A1A60064B187004E0DE
:100C4000002802D1044A014B1A6070478402002038
:100C50007816000092000020C416000030B50A1C6F
:100C60001C4985B00978031C00292AD0042A01D127
:100C7000006804E0022A01D1008800E000785200F8
:100C800004A98B180B3B9C1AA3420BD00F210140E7
:100C9000092902D83025294300E0373119700009AD
:100CA000013BF1E701A930230B7078234B700A2038
:100CB0008B1898700D20D870074B04321B68D868C9
:100CC00003E005490968C868191CFFF7A1FF05B0D2
:100CD00030BDC046880000208402002072B6EFF3C9
:100CE0000883044A1360036883F30888436818473D
:100CF0007047C046880200200D4B1A88002A08D091
:100D00001A88013A92B21A80002A02D1094B0122B4
:100D10001A60094B1A88002A08D01A88013A92B240
:100D20001A80002A02D1034B02221A607047C04683
:100D300090000020984400418A000020F0B591B056
:100D400008A9D14A0B1C31CA31C351CA51C360CA68
:100D500060C3CE4BCE489A687A255203520F920058
:100D60005258CC4902609C68A4B262430C60CA49E4
:100D700000240A60C94A1460C94C2570C94CCA4D88
:100D80002368281C1B6940219847002805D0C74BC1
:100D900002221A60C64B64221A80C64B00221860D9
:100DA000C54B1D60C54BC54DC24F1A602A683B68D4
:100DB0009A42E3D2C04B1B681A78FF2A00D11DE289
:100DC000232A00D0F4E1BE4E3378002B06D0B54B79
:100DD000BC491B680222D868FFF71AFFB04B1B788A
:100DE000532B3FD13B682A6893421ED9B248013247
:100DF0002A609A1AB44B01681B6801310160B34E36
:100E00009A4201D2326000E03360A4483268006840
:100E1000049000F0E5FB336829685A182A60A64A56
:100E20001668F1181160AA4A13702B68013B2B60F9
:100E3000A14B1A68013A1A60A54BA34A1B781168A6
:100E40008B420DD222689548C91A00689269904772
:100E5000002805D0954B02221A60954B64221A8017
:100E6000C04693E1522B0DD18C48974A2368006805
:100E700011685B69039098478C4B01221A606422C9
:100E8000944B0DE04F2B05D1844B8F4A1B681268A1
:100E90001A707BE1482B05D1804B8B4A1B68126886
:100EA0001A8073E1572B05D17C4B874A1B68126867
:100EB0001A606BE16F2B03D1784B0121186807E0B2
:100EC000682B08D1754B80481B6802211B88036082
:100ED000FFF7C4FE5AE1772B06D1704B7A481B68A6
:100EE00004211B680360F3E7472B13D1764B186886
:100EF000FFF7F4FE784B1B6883F3088862B6774BE4
:100F00001B78002B00D141E1664B06201B681B6853
:100F100098473BE1542B04D101233370614B1B688C
:100F200064E04E2B0CD13378002B06D15D4B654924
:100F30001B680222D868FFF76BFE0023337025E19F
:100F4000562B57D123686649D8680122FFF760FE07
:100F500023686449D8680322FFF75AFE624D23686C
:100F6000291CD8680122FFF753FE23685F49D8681F
:100F70000D22FFF74DFE2368291CD8680122FFF7D8
:100F800047FE4D4F4D4D5A49002339602B603A1CA6
:100F9000281C13685E1C16601B780593002B03D079
:100FA000036801330360F4E73E4E2A683368D8686B
:100FB000FFF72EFE33684C49D8680122FFF728FE60
:100FC000059929604B4939603B4A1368581C1060E9
:100FD0001B78002B04D0394B1A6801321A60F3E7F2
:100FE00033682A68D868FFF713FE3368D868354934
:100FF0000222C9E0344A582B17D1254E264D3668B7
:1010000013682A68B10093420AD2204D5808E8615B
:10101000394828801D4D287DC607FBD55B18F2E7AF
:10102000204B36491B68D868ADE0592B7CD112683B
:101030001A4B3349002A02D11B680B606FE0134D35
:10104000086819686B68114E8025AB43920873607D
:10105000002A64D02B4B0D4D2B800C4E337DDD07C9
:10106000FBD500230A4D2D680195AD08AB4203D393
:10107000254D064E358049E09342F9D09D004659F2
:1010800001334E51EEE7C0465816000000400041C3
:101090003C020020340200203002002080020020A8
:1010A0002C020020840200204002002094440041D1
:1010B0008A0000202402002028020020380200209C
:1010C00088000020B81600008C020020900200204A
:1010D00020020020900000208802002092000020C2
:1010E00094160000BD16000096160000E0160000E1
:1010F00098160000A416000002A5FFFFAD16000020
:101100008C00002044A5FFFF04A5FFFF3F4E357D66
:10111000EE07FBD59D0049194019D21A98E73C4BC0
:101120003C491B68D8682EE05A2B2FD13A4B1768E0
:101130001D680026EF19BD4206D02878311C00F04A
:1011400013F90135061CF6E7314B34491B680122BF
:10115000D868FFF75DFD07230F223240111C3609C6
:101160003031092A00DD07311820C0186A46815441
:10117000013BF1D2236806A9D8680822FFF748FD91
:1011800023682749D8680322FFF742FD254B7A22BE
:101190001A70254B00221A60244B1B7893422DD0E5
:1011A0001B4B23491B680122D868FFF731FD25E05E
:1011B000111C3039C8B21C4B092804D81D682A01FB
:1011C000114319601AE0111C4139052903D81E6822
:1011D000373A310106E0111C6139052904D8186835
:1011E000573A01010A4308E02C2A03D10A4A196838
:1011F000116001E00B490A7000221A600D4B1A6859
:1012000001321A600C4B1A680132CCE500400041F3
:1012100084020020B116000080020020B5160000F4
:10122000B71600002C0200208C020020880000204D
:10123000BB160000380200202802002010B51C4B0D
:1012400001201A78022402431A701A4B0F221978CF
:101250009143197019782143197017490C7820436C
:10126000087019780A401A701A7820210A431A70F7
:10127000124B04211A6A0A431A62114B114A5A800E
:101280005A7852B2002AFBDBC4220F480F4992035E
:10129000FEF73AFF0E4A002313700E4A13700E4AEF
:1012A00013700E4A13700E4A13700E4A137010BD5D
:1012B0004A440041354400414B4400410004004091
:1012C000000C004014400000000800422AF6000014
:1012D000940200201B0300209502002098020020A9
:1012E0001C0300201903002008B5C1B20248FEF714
:1012F00039FF012008BDC04600080042024B187E9D
:101300004007C00F7047C0460008004208B5FFF70D
:10131000F5FF0028FBD00248FEF72AFF08BDC046B3
:101320000008004208B5FFF7E9FF0023984205D006
:10133000FFF7ECFF031C233B5A425341181C08BD26
:1013400070B5041C0D1C4618B44204D02078FFF779
:10135000CBFF0134F8E7281C70BD10B5041CFFF763
:10136000D5FF2070012010BD0B0A5840034B4000F0
:10137000C05A0902484080B27047C046EE160000CD
:10138000F7B50024051C0F1C261CBC4220D0FFF71B
:10139000BDFF114BC0B21B780190002B1AD1311C3C
:1013A000FFF7E2FF0D4B061C1A88002A04D10C4AF5
:1013B00011782A1C002907D001996A1C2970802FF6
:1013C00002D11988013919800134A4B2151CDCE757
:1013D000301C00E00120FEBD190300209602002011
:1013E0001A030020F0B53E4E85B0002203900C1C7D
:1013F00032703C4B914201D1012201E03A490C800C
:101400001A707F231C4201D080349C43FFF77EFF7B
:101410003378C0B2002B07D000253570FFF776FF78
:101420003378C0B2AB4236D1432803D0712853D0B1
:101430001528EBD1012300930120FFF755FF0098F9
:10144000FFF752FF00998025C843C0B2FFF74CFF59
:10145000039B00270293244A1388002B1DD12149A6
:1014600001930978002918D10198FFF73DFF391C35
:101470000198FFF779FF013D071C002DEBD1000A11
:10148000C0B2FFF731FFF8B2FFF72EFFFFF73EFFC4
:101490003378002B0AD035701FE00299013B0978A0
:1014A0001380029B019101330293DDE7C0B206284D
:1014B00007D1009B03990133DBB280310093803C5C
:1014C0000391002CB8D10420FFF70EFFFFF71EFF99
:1014D000044B01251C7000E00025281C05B0F0BD60
:1014E000190300201A03002096020020F0B5384CA2
:1014F00087B0002301902370994201D1012301E0BC
:10150000344A1180344A642613704320FFF7ECFEFE
:10151000324FFFF7F3FE002803D1002F03D0013F25
:10152000F7E7002F03D1013E002EEED14DE001255B
:10153000FFF7ECFE2378002B38D1C0B202900128CF
:1015400005D004283DD10620FFF7CEFE39E005AED8
:101550000221301CFFF714FF01988021FFF710FFD4
:1015600023780390002B18D1FFF7D0FE0702FFF776
:10157000CDFEBFB223783F18BFB2012B0DD0039B25
:101580009F4207D13378AB4204D1EB437278DBB290
:101590009A4204D01820FFF7A7FE002303E006209C
:1015A000FFF7A2FE029B2278002A02D000262670B6
:1015B0000BE0012B05D1019A6B1C8032DDB2019248
:1015C000B6E7054A002313700126301C07B0F0BDB2
:1015D00019030020960200201A03002000350C0099
:1015E00010B50023934203D0CC5CC4540133F9E717
:1015F00010BD031C8218934202D019700133FAE720
:1016000070470023C25C0133002AFBD1581E70478B
:10161000F8B5C046F8BC08BC9E467047F8B5C04651
:10162000F8BC08BC9E467047040309044172647507
:10163000696E6F204C4C43004D696E692053414DDB
:1016400000000000120100020200004009121720F1
:10165000000201020001000008000000100000006C
:101660002000000040000000800000000001000099
:101670000002000000040000E91200000D13000049
:10168000FD120000411300005B130000E513000091
:10169000ED140000760020004A616E2032372032BF
:1016A0003031370030363A34363A303800580A0D87
:1016B00000590A0D005A00230A0D003E00322E3058
:1016C00000000000390B0000550B0000710B0000FA
:1016D000950B0000B10B0000950B0000D90B00002A
:1016E0005B41726475696E6F3A58595A5D0000002B
:1016F0002110422063308440A550C660E770088105
:1017000029914AA16BB18CC1ADD1CEE1EFF131127B
:10171000100273325222B5529442F772D662399354
:1017200018837BB35AA3BDD39CC3FFF3DEE36224CB
:10173000433420040114E664C774A44485546AA5A4
:101740004BB528850995EEE5CFF5ACC58DD553365B
:10175000722611163006D776F6669556B4465BB7F4
:101760007AA719973887DFF7FEE79DD7BCC7C4482B
:10177000E5588668A7784008611802282338CCC944
:10178000EDD98EE9AFF9488969990AA92BB9F55ABB
:10179000D44AB77A966A711A500A333A122AFDDB94
:1017A000DCCBBFFB9EEB799B588B3BBB1AABA66C8B
:1017B000877CE44CC55C222C033C600C411CAEEDE4
:1017C0008FFDECCDCDDD2AAD0BBD688D499D977E9B
:1017D000B66ED55EF44E133E322E511E700E9FFF34
:1017E000BEEFDDDFFCCF1BBF3AAF599F788F8891EA
:1017F000A981CAB1EBA10CD12DC14EF16FE18010CE
:10180000A100C230E3200450254046706760B983D0
:101810009893FBA3DAB33DC31CD37FE35EF3B1021D
:101820009012F322D2323542145277625672EAB5E0
:10183000CBA5A89589856EF54FE52CD50DC5E2346D
:10184000C324A01481046674476424540544DBA7B0
:10185000FAB79987B8975FE77EF71DC73CD7D326BD
:10186000F2369106B01657667676154634564CD940
:101870006DC90EF92FE9C899E9898AB9ABA944580D
:10188000654806782768C018E1088238A3287DCB10
:101890005CDB3FEB1EFBF98BD89BBBAB9ABB754A5D
:1018A000545A376A167AF10AD01AB32A923A2EFDA0
:1018B0000FED6CDD4DCDAABD8BADE89DC98D267CAD
:1018C000076C645C454CA23C832CE01CC10C1FEFF0
:1018D0003EFF5DCF7CDF9BAFBABFD98FF89F176EFD
:1018E000367E554E745E932EB23ED10EF01E000031
:0418F00000000000F4
:1018F40001140000090243000201008032090400BF
:101904000001020200000524001001042402000565
:10191400240600010524010001070583030800FFD4
:1019240009040100020A00000007058102400000CA
:10193400070502024000000000C201000000080088
:0C194400690000004100000000000000ED
:0400000300000615DE
:00000001FF
